:020000040000FA
:100000000C942D020C945E020C945E020C945E0221
:100010000C945E020C945E020C945E020C945E02E0
:100020000C945E020C94F9110C94F9110C94F911D2
:100030000C945E020C94FA100C945E020C945E0216
:100040000C945E020C945E020C945E020C945E02B0
:100050000C945E020C945E020C945E020C94B01040
:100060000C945E020C94C3110C9499110C945E02D2
:100070000C945E020C945E020C945E020C945E0280
:100080000C945E020C945E020C945E020C945E0270
:100090000C945E020C945E020C945E020C945E0260
:1000A0000C945E020C945E020C945E020C945E0250
:1000B0000C945E020C945E020C945E020C945E0240
:1000C0000C945E020C945E020C945E020C945E0230
:1000D0000C945E020C945E020C945E020C945E0220
:1000E0000C945E020C94B8020C94E4030C94EE039E
:1000F0000C94DA030C94CB030C94AA020C9403081E
:100100000C940C040C94CA040C94BB050C94BC0411
:100110000C9475030C94A6020C949D030C94F803A4
:100120000C946C040C946A050C948F020C94BC0221
:100130000C9493020C9481020C94C2020C94F20968
:100140000C94AD030C9402050C94C1020C940204AF
:100150000C946B080C9496020C9403120C94B70345
:100160000C9489030C94A5030C947A030C94A002BC
:100170000C94B4020C94C6020C948B020C9493035E
:100180000C94F3090C94C1030C94AB0B0C94A804CD
:100190000C949C020C94AE020C947F030C94870286
:1001A0000C949904556E6B6E6F776E206572726F4A
:1001B000720041204D494641524520504943432059
:1001C000726573706F6E6465642077697468204E21
:1001D000414B2E00546865204352435F4120646FB9
:1001E0006573206E6F74206D617463682E00496EB4
:1001F00076616C696420617267756D656E742E003E
:10020000496E7465726E616C206572726F722069DE
:100210006E2074686520636F64652E2053686F7567
:100220006C64206E6F742068617070656E2E004182
:1002300020627566666572206973206E6F74206235
:10024000696720656E6F7567682E0054696D656F0C
:10025000757420696E20636F6D6D756E696361746E
:10026000696F6E2E00436F6C6C6973696F6E2064EA
:10027000657465637465642E004572726F722069DF
:100280006E20636F6D6D756E69636174696F6E2E3C
:1002900000537563636573732E00025741524E49D4
:1002A0004E473A20436F6D6D756E69636174696F77
:1002B0006E206661696C7572652C206973207468A4
:1002C00065204D4652433532322070726F70657230
:1002D0006C7920636F6E6E65637465643F00203DCA
:1002E0002028756E6B6E6F776E2900203D20636F3E
:1002F000756E746572666569742063686970002044
:100300003D2076322E3000203D2076312E300020E8
:100310003D2076302E3000203D2028636C6F6E65C6
:1003200029004669726D776172652056657273693E
:100330006F6E3A2030780000002100240027002A48
:10034000002D003000330001010000040107010A04
:100350000100002200250028002B002E003100346F
:100360000002010000050108010B0100002000232C
:1003700000260029002C002F00320000010000039D
:100380000106010901050505050705080808080219
:100390000202020A0A08080404040401010101011E
:1003A0000101010303030303030303040707070C0D
:1003B0000C0C0C0C0C0C0C020202020606060606C3
:1003C0000606060B0B0B0B0B0B0B0B010210202070
:1003D0000808102040102040800201020108040299
:1003E000010102040810204080804020100804020F
:1003F0000180040201804020100804020108040268
:10040000010102040810204080010204081020406D
:100410008000000A0B02090C0D0E080703040100FE
:1004200000000000000000000000000000000000CC
:100430000000000000000000000000000012111089
:1004400000000000000000000000000000000000AC
:100450000000000000000000031211241FBECFEFB7
:10046000D1E2DEBFCDBF00E00CBF24E0AAE8B3E0DC
:1004700001C01D92A738B207E1F713E0A0E0B2E097
:10048000ECE2F2E300E00BBF02C007900D92AA3845
:10049000B107D9F712E0CDE2D2E000E006C0219723
:1004A0000109802FFE010E94F616CC32D10780E0B0
:1004B0000807A9F70E9458120C9414190C94000014
:1004C0008CBD9DBD08958150823108F05AC0E82F3F
:1004D000F0E08827E159FD4F8F4F0C94F6168F02FC
:1004E0009302810287028B02C10296029C02A00243
:1004F000A602AA02AE02B402B802C102BC02C20243
:10050000C602809180008F7780938000089580914B
:1005100080008F7DF9CF80918000877FF5CF84B5F3
:100520008F7784BD089584B58F7DFBCF8091B00017
:100530008F778093B00008958091B0008F7DF9CFC0
:10054000809190008F778093900008958091900023
:100550008F7DF9CF80919000877FF5CF8091A000AB
:100560008F778093A00008958091A0008F7DF9CFB0
:100570008091A000877FF5CF809120018F778093B5
:1005800020010895809120018F7DF9CF8091200175
:10059000877FF5CFCF93DF93282F30E0F901EF5E0F
:1005A000FB4F8491F901E553FC4FD491F901EB57CE
:1005B000FC4FC491CC23A1F081110E946302EC2F67
:1005C000F0E0EE0FFF1FE559FC4FA591B491EC91BF
:1005D000ED2381E090E009F480E0DF91CF91089570
:1005E00080E090E0FACF1F93CF93DF93282F30E085
:1005F000F901EF5EFB4F8491F901E553FC4FD49173
:10060000F901EB57FC4FC491CC23A9F0162F8111AF
:100610000E946302EC2FF0E0EE0FFF1FEF5AFC4F39
:10062000A591B4918FB7F894EC91111108C0D095B1
:10063000DE23DC938FBFDF91CF911F910895DE2BD6
:10064000F8CFCF93DF9390E0FC01E553FC4F24916A
:100650008B579C4FFC0184918823D1F090E0880F48
:10066000991FFC01E95CFC4FA591B491FC01EF5A84
:10067000FC4FC591D49161110EC09FB7F8948C9135
:10068000E22FE0958E238C932881E223E8839FBF9D
:10069000DF91CF9108958FB7F894EC91E22BEC9312
:1006A0008FBFF6CF982FE82FF0E0EF5EFB4FE4917D
:1006B000E150E23108F0B0C0F0E08827ED59FC4F7E
:1006C0008F4F0C94F61675037A037F038903930307
:1006D0000C049D03A503AD03B703C103CB03DA03E9
:1006E000E4030C04EE03F803020484B5806884BDBF
:1006F00067BD089584B5806284BD68BD089580910A
:1007000080008068809380007093890060938800E7
:1007100008958091800080628093800070938B00A8
:1007200060938A00089580918000886080938000A3
:1007300070938D0060938C0008958091B000806864
:100740008093B0006093B30008958091B000806200
:100750008093B0006093B400089580919000806809
:100760008093900070939900609398000895809111
:10077000900080628093900070939B0060939A0039
:1007800008958091900088608093900070939D0000
:1007900060939C0008958091A00080688093A000E1
:1007A0008091A0008F7B8093A0007093A90060933C
:1007B000A80008958091A00080628093A0007093AB
:1007C000AB006093AA0008958091A0008860809398
:1007D000A0007093AD006093AC000895809120015B
:1007E0008068809320017093290160932801089507
:1007F0008091200180628093200170932B0160938F
:100800002A010895809120018860809320017093CF
:100810002D0160932C0108956038710524F460E087
:10082000892F0C94F30261E0FBCF3FB7F8948091DD
:10083000BA039091BB03A091BC03B091BD0326B550
:10084000A89B05C02F3F19F00196A11DB11D3FBF08
:10085000BA2FA92F982F8827BC01CD01620F711DD7
:10086000811D911D42E0660F771F881F991F4A95D1
:10087000D1F708958F929F92AF92BF92CF92DF925D
:10088000EF92FF924B015C010E9415046B017C0109
:100890000E9415046C197D098E099F09683E7340FA
:1008A00081059105A8F321E0821A9108A108B108F9
:1008B00088EEC80E83E0D81EE11CF11C811491045F
:1008C000A104B10429F7FF90EF90DF90CF90BF9083
:1008D000AF909F908F900895AF92BF92CF92DF928A
:1008E000EF92FF920F931F93CF93DF936C017B01E5
:1008F0008B01040F151FEB015E01AE18BF08C01776
:10090000D10759F06991D601ED91FC910190F081E8
:10091000E02DC6011995892B79F7C501DF91CF919B
:100920001F910F91FF90EF90DF90CF90BF90AF900D
:100930000895FC01538D448D252F30E0842F90E0E5
:10094000821B930B541710F0CF96089501970895CA
:10095000FC01918D828D981761F0A28DAE0FBF2F93
:10096000B11D5D968C91928D9F5F9F73928F90E0E9
:1009700008958FEF9FEF0895FC01918D828D981758
:1009800031F0828DE80FF11D858D90E008958FEF95
:100990009FEF0895FC01918D228D892F90E0805C5E
:1009A0009F4F821B91098F73992708958EEB93E0D7
:1009B0000E94CA0421E0892B09F420E0822F0895C7
:1009C000FC01A48DA80FB92FB11DA35ABF4F2C91C4
:1009D000848D90E001968F739927848FA689B789BB
:1009E0002C93A089B1898C91837080648C93938DB2
:1009F000848D981306C00288F389E02D80818F7D55
:100A000080830895EF92FF920F931F93CF93DF930C
:100A1000EC0181E0888F9B8D8C8D98131AC0E8893A
:100A2000F989808185FF15C09FB7F894EE89FF8909
:100A30006083E889F98980818370806480839FBFA7
:100A400081E090E0DF91CF911F910F91FF90EF90A7
:100A50000895F62E0B8D10E00F5F1F4F0F731127B7
:100A6000E02E8C8D8E110CC00FB607FCFACFE889F2
:100A7000F989808185FFF5CFCE010E94E004F1CF96
:100A8000EB8DEC0FFD2FF11DE35AFF4FF0829FB766
:100A9000F8940B8FEA89FB8980818062CFCF0F9316
:100AA0001F93CF93DF938C01D0E0C0E0F801EC0FEF
:100AB000FD1F6491662341F08EEB93E00E940205D6
:100AC000892B11F02196F2CFCE01DF91CF911F91AA
:100AD0000F910895CF93DF93EC01888D8823B9F0AF
:100AE000AA89BB89E889F9898C9185FD03C0808139
:100AF00086FD0DC00FB607FCF7CF8C9185FFF2CFB6
:100B0000808185FFEDCFCE010E94E004E9CFDF9127
:100B1000CF91089580E090E0892B29F00E94D604BF
:100B200081110E94000080E090E0892B49F080E074
:100B300090E0892B29F00E94000081110E940000A2
:100B400080E090E0892B49F080E090E0892B29F04B
:100B50000E94000081110E94000080E090E0892B3B
:100B600049F080E090E0892B29F00E94000081117B
:100B70000C9400000895BC016E5F7F4FDC01ED9185
:100B8000FC910190F081E02D40E0199591E08111F8
:100B900090E0892F08958430F1F050F4813091F085
:100BA00030F1823091F0833099F084EA91E0089539
:100BB0008630B9F098F08730B9F08F3FB1F782EB0B
:100BC00091E0089589E792E0089585E692E008951E
:100BD0008BE492E008958FE292E0089580E092E045
:100BE00008958EEE91E0089584ED91E0089581E9F5
:100BF00092E0089508958EBD00000DB407FEFDCF6C
:100C00008EB50895DF92EF92FF920F931F93CF93CB
:100C1000DF937C01062FD42E152F80E590E00E94F3
:100C2000600260E0F70186850E94F30282E10E9483
:100C3000FB05CD2DD12F0C0F1D2F111DC017D10776
:100C400021F089910E94FB05F9CF61E0F7018685CB
:100C5000DF91CF911F910F91FF90EF90DF900C9457
:100C6000F3021F93CF93DF93EC01162F80E590E002
:100C70000E94600260E08E850E94F302812F8068EE
:100C80000E94FB0580E00E94FB05182F61E08E8525
:100C90000E94F302812FDF91CF911F9108950F934E
:100CA0001F93CF93DF93EC01062F142F80E590E084
:100CB0000E94600260E08E850E94F302802F0E94F5
:100CC000FB05812F0E94FB0561E08E85DF91CF91AE
:100CD0001F910F910C94F302CF92DF92EF92FF924B
:100CE0000F931F93CF93DF93EC016B01F42E8901D7
:100CF00040E062E00E944F0644E06AE0CE010E94BC
:100D00004F0640E864E1CE010E944F06A6016F2D18
:100D1000CE010E94020643E062E0CE010E944F062F
:100D20008FB7F894C090B603D090B703E090B803A3
:100D3000F090B9038FBF89E5C80ED11CE11CF11CEE
:100D40006AE0CE010E94310682FF1BC040E062E0F3
:100D5000CE010E944F0664E4CE010E943106F801E4
:100D6000808362E4CE010E943106F801818380E035
:100D7000DF91CF911F910F91FF90EF90DF90CF9077
:100D800008952FB7F8948091B6039091B703A0917E
:100D9000B803B091B9032FBF8C159D05AE05BF05F3
:100DA00078F283E0E5CF2F923F924F925F926F925D
:100DB0007F928F929F92AF92BF92CF92DF92EF92EB
:100DC000FF920F931F93CF93DF931F921F92CDB784
:100DD000DEB73C01162F942E290180E0A114B10446
:100DE00011F0F5018081382C329490EF3922380EC1
:100DF00040E062E0C3010E944F064FE768E0C30194
:100E00000E944F0640E864E1C3010E944F06A20120
:100E1000602FC3010E940206432D6AE1C3010E94B4
:100E20004F06412F62E0C3010E944F061C3051F46F
:100E30006AE1C3010E943106482F40686AE1C3019C
:100E40000E944F068FB7F8942090B6033090B703F6
:100E50004090B8035090B9038FBFF4E22F0E311CBD
:100E6000411C511C68E0C3010E943106982F992152
:100E700009F0BFC080FF16C083E00F900F90DF9194
:100E8000CF911F910F91FF90EF90DF90CF90BF9087
:100E9000AF909F908F907F906F905F904F903F901A
:100EA0002F9008952FB7F8948091B6039091B703CF
:100EB000A091B803B091B9032FBF82159305A40583
:100EC000B50580F2D9CFE114F10409F467C0C1146B
:100ED000D10409F463C064E1C3010E943106982E75
:100EE000F6018081891508F47EC090829920C9F1AD
:100EF00080E590E00E94600260E0F30186850E9438
:100F0000F3029A9482E90E94FB05882099F00FEF82
:100F100010E001C0000F8A94EAF782E90E94FB0505
:100F2000902F9095F701208192238023982B908316
:100F3000882483948701080D111D891440F482E9E7
:100F40000E94FB05F80181938F018394F6CF80E026
:100F50000E94FB05F801808361E0F30186850E9411
:100F6000F30268E1C3010E9431068770A114B10445
:100F700011F0F501808353FC38C0E114F104B9F19C
:100F8000C114D104A1F1988D992389F1F601408112
:100F9000413031F4843029F58FEF6FCF80E0EBCF13
:100FA0004230F8F081111DC042509E012F5F3F4F2B
:100FB000B701C3010E946C0681115FCFF6019081D9
:100FC000E90EF11CF701329720819981291309C09C
:100FD000F1E0EF1AF108F70120819A81291709F44D
:100FE0004CCF87E04ACF84E048CF82E046CF80E014
:100FF00044CF6CE0C3010E943106582E837109F47E
:1010000062CF81E03ACF6F927F928F92AF92BF9280
:10101000CF92DF92EF92FF920F93CF93DF9300D0A6
:101020001F921F92CDB7DEB73C0182E08D8340E076
:1010300064E2C3010E944F0640E066E2C3010E94E1
:101040004F0646E268E4C3010E944F0686E28B83A6
:101050008D818230F0F16CE1C3010E943106482F8E
:101060004F776CE1C3010E944F0687E08C831F928B
:10107000812CCE0104965C0101966C0104977C01E1
:1010800001E09E012D5F3F4F40E36CE0C3010E94F1
:10109000D306982F0F90811119C08D818230C9F429
:1010A0008C81811116C081E00F900F900F900F90EE
:1010B0000F90DF91CF910F91FF90EF90DF90CF9045
:1010C000BF90AF908F907F906F90089581E09230A5
:1010D00059F380E0E9CF2F923F924F925F926F9247
:1010E0007F928F929F92AF92BF92CF92DF92EF92B8
:1010F000FF920F931F93CF93DF93CDB7DEB72E9759
:101100000FB6F894DEBF0FBECDBF06E0413508F044
:101110004BC14E872B013C016CE10E943106482FE8
:101120004F776CE1C3010E944F0683E989832E85C6
:10113000222329F081E0F2019081953008F480E0CB
:10114000992493941C869C85990F990F990F1E855D
:10115000191B17FD10E032E0882319F098E89B83F3
:1011600033E021E0912F977009F420E0912F9595BD
:1011700095959595290FD1F094E0811193E0291769
:1011800008F4922F2C85E22FF0E03196E40DF51D46
:10119000232F4191A1E0B0E0AC0FBD1FA20FB11D04
:1011A0004C932F5F422F431B491798F38111185F0F
:1011B00010320CF484C080E78A838B819C8189275C
:1011C0009D8189279E8189278F839E01285F3F4FBC
:1011D00047E0BE016F5F7F4FC3010E946C06082F7E
:1011E0008111E2C01A8693E09B871D87FE01379626
:1011F0001F0109E08A84482D4295407F480D6AE12D
:10120000C3010E944F061F92CE010A965C01FE01A7
:101210003B966F0171019E012F5F3F4F40E36CE0F1
:10122000C3010E94D306082F0F90823009F065C0D9
:101230006CE1C3010E94310685FDB6C08F7109F4CF
:1012400080E2282F30E0412F110F550B4217530732
:101250000CF09EC0182FE22FE595E595E595EF5F20
:10126000922F977081E009F480E0E80F81E090E030
:101270008C0F9D1F8E0F911DFC012150310927708D
:10128000332781E090E002C0880F991F2A95E2F78A
:101290009C018081822B80838BCF85E98983FE85A9
:1012A000FF2331F081E0F2019081983008F04BCFBC
:1012B00080E049CF87E98983F6E0FC87F9CF912F59
:1012C00097709A87812F8595859585958E5F282FB4
:1012D0002295207F290F2A8301E0911101C000E0AF
:1012E000080F22242394312C2C0E3D1E280E311C75
:1012F000F9E0F81BFB871D877DCF811155C010E2F7
:101300009D8590320CF457CF8B81883809F042C00C
:1013100083E093E02C85E22FF0E03196E40DF51D9B
:10132000980FA1E0B0E0AC0FBD1FA80FB11D2C912C
:1013300021938F5F8913F5CF8B858C87833009F0DC
:101340004DC08A8581114AC09E012D5F3F4F41E00B
:10135000B101C3010E946C06082F811125C09B8139
:10136000F101818198133CC09C818281981338C01F
:10137000808182FF12C09394F2E09F1609F48DCF12
:1013800023E0921609F496CF81E0981609F4CDCEA9
:1013900005E00AC082E094E0BDCFF2018387892D89
:1013A000880F980E93949082802F2E960FB6F89403
:1013B000DEBF0FBECDBFDF91CF911F910F91FF9088
:1013C000EF90DF90CF90BF90AF909F908F907F90E5
:1013D0006F905F904F903F902F90089501E0E4CF81
:1013E00007E0E2CF089590E080E008958F92AF92F9
:1013F000BF92CF92DF92EF92FF920F93CF93DF9342
:10140000CDB7DEB764970FB6F894DEBF0FBECDBF81
:10141000062FE62EF12CA701BC01CE0101960E94F9
:10142000041921E030E02C0F3D1F2E0D3F1D402FF1
:10143000BE016F5F7F4F8BE594E00E946C068111C7
:1014400023C082E18C8B1B8A0E5F1F92812CCE0100
:1014500043965C0101966C0143977C019C0140E33B
:101460006CE08BE594E00E94D3060F9081110CC0D4
:101470008C898130D1F48B898430B9F481E09981F1
:101480009A3009F480E0819564960FB6F894DEBF37
:101490000FBECDBFDF91CF910F91FF90EF90DF9006
:1014A000CF90BF90AF908F90089581E0EDCFCF9314
:1014B000DF93EC0160E08E810E94F30261E08E8197
:1014C0000E94F30260E08E810E94F3028BE891E0BB
:1014D0000197F1F7DF91CF910895CF92DF92EF92CC
:1014E000FF920F931F93CF93DF936C017C0187E0F2
:1014F000E80EF11CD0E0C0E0062F10E0B8010C2E81
:1015000002C0759567950A94E2F76170F7018191C1
:101510007F010E94F3022196C430D10579F7C601FC
:10152000DF91CF911F910F91FF90EF90DF90CF90BF
:101530000C94570ACF92DF92EF92FF920F931F9372
:10154000CF93DF93EC01F62E642F8C810E94F3027F
:101550008D818F3F19F060E00E94F3020F2D10E0A3
:101560008F8584FF25C06E0187E0C80ED11CF12C49
:10157000E12CB8010E2C02C0759567950A94E2F72C
:101580006170F60181916F010E94F302FFEFEF1A83
:10159000FF0A88E0E816F10461F7CE01DF91CF91F0
:1015A0001F910F91FF90EF90DF90CF900C94570A0E
:1015B000B80184E0759567958A95E1F7CE010E94A0
:1015C0006D0A6F2DCE01DF91CF911F910F91FF908A
:1015D000EF90DF90CF900C946D0A40E0682F8BE67F
:1015E00094E00C949A0A81E00E94ED0A8BE39FE15B
:1015F0000197F1F70895CF93DF93823029F490910A
:101600007A04986090937A0480937E0410927F0409
:1016100080E48093800480E18093810480E580935E
:10162000820461E080916F040E9421038091700424
:101630008F3F19F061E00E94210361E08091710405
:101640000E942103CBE6D4E09E012B5634408091CA
:101650007A0484FD0BC084E090E0219628173907B6
:1016600044F461E08E810E942103EECF88E090E097
:10167000F4CF8BE39DE00197F1F760E080916F0478
:101680000E94F30260E0809171040E94F302809155
:1016900070048F3F19F060E00E94F30280917A0499
:1016A00084FD34C063E08BE694E00E946D0ACBE4D5
:1016B000D6E4CE010197F1F763E08BE694E00E9457
:1016C0006D0A2197F1F763E08BE694E00E946D0AC2
:1016D00083E592E00197F1F762E08BE694E00E94E7
:1016E0006D0A80917A0480620E94ED0A84E0809302
:1016F0007B048CE00E94ED0A0E94F30A82E0809352
:101700007C0486E0DF91CF910C94ED0A80620E9408
:10171000ED0A8BE496E40197F1F780917A048062F8
:101720000E94ED0A83E592E00197F1F780917A0437
:1017300080620E94ED0AD5CF90917E04691710F067
:101740006FEF690FE62FF0E0E559FB4F9489890FA1
:1017500080680C94ED0A41E00E949A0A81E090E0D2
:1017600008950F931F93CF93DF938B0128E0829FFF
:10177000C001112480640E94ED0AE801085F1F4F38
:1017800069918BE694E00E94AB0BC017D107C1F7BB
:10179000DF91CF911F910F910895FB0101900020DF
:1017A000E9F73197AF01461B570BDC01ED91FC9136
:1017B0000280F381E02D1994CF93DF930E944F05AF
:1017C000EC016FE472E08EEB93E00E94CD0B8C0F86
:1017D0009D1FDF91CF9108956115710511F00C9453
:1017E000CD0B90E080E00895CF93DF93BC018EEBAA
:1017F00093E00E94EC0BEC016FE472E08EEB93E05F
:101800000E94CD0B8C0F9D1FDF91CF9108958F9279
:101810009F92AF92BF92EF92FF920F931F93CF933D
:10182000DF93CDB7DEB7A1970FB6F894DEBF0FBE3A
:10183000CDBF7C01FA01CB0119A2223008F42AE0C5
:101840008E010F5D1F4F822E912CB12CA12CBF0158
:10185000A50194010E94D416F901CA016A30ECF482
:10186000605DD8016E938D01232B242B252B79F7F6
:10187000BD01C7010E94EC0BA1960FB6F894DEBF24
:101880000FBECDBFDF91CF911F910F91FF90EF90D1
:10189000BF90AF909F908F900895695CE2CF0C94B9
:1018A000EC0B0E94F30A62E572E08BE694E00E9482
:1018B0004F0C60E08BE694E00E94AB0B61E08BE69E
:1018C00094E00E94AB0B62E08BE694E00E94AB0BCD
:1018D00063E08BE694E00E94AB0B61E080E00E9445
:1018E0009C0B6BE572E08BE694E00C944F0CCF936D
:1018F00061E08CE00E94210361E08CE00E94F30231
:1019000061E08BE00E94210360E08BE00E94F30223
:1019100061E08AE00E94210360E08AE00E94F30215
:101920000E94F30A8BE594E00E940308882309F4DF
:10193000DFC18BE594E00E94BB05882309F4D8C180
:101940006BE672E08EEB93E00E944F0C61E08CE05E
:101950000E9421036FEA70E08CE00E94520361E074
:101960008BE00E94210361E08BE00E94F30261E0C2
:101970008AE00E9421036AEB70E08AE00E94520331
:1019800080910002883049F08F3FF1F068EE73E0FB
:1019900080E090E0CF910C943A04EAE9F2E0C4913F
:1019A000C7FDF4CF61E088E00E942103CC2309F455
:1019B000DFC0C23009F0F4C08091B100887F84603C
:1019C0008093B1008EE980C188E080930002EAE94B
:1019D000F2E0C4918C2FCF3FC9F2C23009F469C044
:1019E00060F4CC2381F1C13009F445C087FDCECF2E
:1019F00061E088E00E942103DCCFC43009F49AC082
:101A000008F479C0C53091F710922001109221019D
:101A10008091210188608093210180912101816062
:101A200080932101EDE8F3E0E491F0E0EE0FFF1F79
:101A3000EF5AFC4F85919491E3EDF3E0E491E0934C
:101A40008A03C5E0AFCF14BC15BC84B5826084BDE9
:101A500085B5816085BDEDE8F3E0E491F0E0EE0F3F
:101A6000FF1FEF5AFC4F85919491E3EDF3E0E49171
:101A7000E0938E0397CF10928000109281008091A6
:101A800081008860809381008091810081608093D3
:101A90008100EDE8F3E0E491F0E0EE0FFF1FEF5A74
:101AA000FC4F85919491E3EDF3E0E491E0938D0395
:101AB00079CF1092B0001092B1008091B000826096
:101AC0008093B0008091B10081608093B100EDE817
:101AD000F3E0E491F0E0EE0FFF1FEF5AFC4F859129
:101AE00094919093A6038093A503E3EDF3E0E49132
:101AF000E093A70357CF109290001092910080912D
:101B00009100886080939100809191008160809322
:101B10009100EDE8F3E0E491F0E0EE0FFF1FEF5AE3
:101B2000FC4F85919491E3EDF3E0E491E0938C0315
:101B3000C3E038CF1092A0001092A1008091A100C4
:101B400088608093A1008091A10081608093A100B2
:101B5000EDE8F3E0E491F0E0EE0FFF1FEF5AFC4FE9
:101B600085919491E3EDF3E0E491E0938B031ACF38
:101B700085B5887F836085BD8EE987BD8FE093E062
:101B8000A0E0B0E080939F039093A003A093A103F3
:101B9000B093A20380916E00826080936E00F6CEB7
:101BA000C130F1F480918100887F81608093810051
:101BB00088EE97E290938900809388008FE093E00D
:101BC000A0E0B0E080939B0390939C03A0939D03BF
:101BD000B0939E0380916F00826080936F00D6CE99
:101BE000C330F1F480919100887F816080939100EF
:101BF00088EE97E290939900809398008FE093E0AD
:101C0000A0E0B0E08093970390939803A09399038A
:101C1000B0939A0380917100826080937100B6CE78
:101C2000C430F1F48091A100887F81608093A1008D
:101C300088EE97E29093A9008093A8008FE093E04C
:101C4000A0E0B0E08093930390939403A093950356
:101C5000B09396038091720082608093720096CE5A
:101C6000C530F1F480912101887F8160809321014A
:101C700088EE97E290932901809328018FE093E00A
:101C8000A0E0B0E080938F0390939003A093910322
:101C9000B09392038091730082608093730076CE3C
:101CA000C23089F034F4CC2361F0C13009F06ECE3B
:101CB0007FCFC43009F4BCCF0CF49ACFC530C1F249
:101CC00065CE88EE5ACF88EE8093B3008FE093E024
:101CD000A0E0B0E08093A8039093A903A093AA0387
:101CE000B093AB03809170008260809370004ECE01
:101CF000CF91089582309105B9F12CF4009759F0F5
:101D00000197F9F008958330910509F440C00497D4
:101D100009F450C008950E94F30A60E081E00E9437
:101D20009C0B69E772E08BE694E00E944F0C61E047
:101D300085E00E949C0B67E872E08BE694E00C94CF
:101D40004F0C0E94F30A60E081E00E949C0B6DE85A
:101D500072E08BE694E00E944F0C61E085E00E9407
:101D60009C0B6CE972E0E9CF0E94F30A60E081E02D
:101D70000E949C0B62EA72E08BE694E00E944F0C9A
:101D800061E085E00E949C0B60EB72E0D6CF0E9480
:101D9000F30A60E086E00E949C0B66EB72E08BE643
:101DA00094E00E944F0C61E085E00E949C0B6BEB7D
:101DB00072E0C3CF0E94F30A60E081E00E949C0BB6
:101DC00061EC72E0BACF8F929F92AF92BF92CF92A6
:101DD000DF92EF92FF920E94F30A69EC72E08BE6C9
:101DE00094E00E94EC0B61E080E00E949C0B6EECA2
:101DF00072E08BE694E00E94EC0BC090B103D090AF
:101E0000B203E090B303F090B403A7019601C701B9
:101E1000B6010E94CF1664ED72E081111AC046012E
:101E20005701E894B7F82FEF3FEF4FE75FE7C501A1
:101E3000B4010E94CF1681112EC02FEF3FEF4FE764
:101E40005FE7C501B4010E940A15181624F568ED74
:101E500072E08BE694E00E94CD0B60EE72E08BE6C0
:101E600094E00E944F0C86E10E94CA0260E0892B38
:101E700009F473C084E00E949C0B62EE72E08BE672
:101E800094E0FF90EF90DF90CF90BF90AF909F9045
:101E90008F900C94EC0B2FEF3FEF4FE75FE4C701FF
:101EA000B6010E94CA1618161CF46CED72E0D1CF70
:101EB0002FEF3FEF4FE75FECC701B6010E940A1515
:101EC00087FDF3CF20E030E0A901C701B6010E94F1
:101ED0000A1587FF0AC041E06DE28BE694E00E949C
:101EE0009A0AF7FAF094F7F8F0942DEC3CEC4CE4F5
:101EF0005DE3C701B6010E942F164B015C010E94F1
:101F00009B166B017C010E940F159B01AC01C50162
:101F1000B4010E942E164B015C012AE0B701A60114
:101F20008BE694E00E94070C41E06EE28BE694E0C1
:101F30000E949A0A20E030E040E251E4C501B40179
:101F40000E9470150E949B16AB0170E060E02AE0D1
:101F50008BE694E00E94070C80CF84E00E949C0BEB
:101F600065EE72E08CCF6F927F928F92AF92BF92AC
:101F7000CF92DF92EF92FF920F931F93CF93DF9355
:101F8000CDB7DEB76C970FB6F894DEBF0FBECDBFEE
:101F90000E94F30A8BE594E00E940308882309F469
:101FA00053C08BE594E00E94BB05882309F44CC024
:101FB0008FEF8D8B8E8B8F8B888F898F8A8F89EE99
:101FC00092E00E94F40B80E6898387E38A83FE0116
:101FD0007596DE0113963E018BE1680E711C8191AE
:101FE0008D936E167F06D9F7E0915D04E150FF0BEB
:101FF000E55AFB4FDE011996CE010D9621912D93E6
:102000008A179B07D9F71F92812CB12CA12CD12CB8
:10201000C12CF12CE12C0CE09E012F5F3F4F40E1E1
:102020006EE08BE594E00E94D306182F0F90882372
:10203000F9F06FEF72E08EEB93E00E944F0C812F6E
:102040000E94CB050E944F056C960FB6F894DEBF38
:102050000FBECDBFDF91CF911F910F91FF90EF90F9
:10206000DF90CF90BF90AF908F907F906F9008954A
:10207000FE0135968CE0DF011D928A95E9F786E135
:1020800089838BE08A8381E28B838CE28C8395E366
:10209000998B8AEC8A8B9B8B8C8B8BE193E00E94D3
:1020A000F40B6DE070E090E080E00E9423188C015A
:1020B00050E040E0009741F0FC01108267E273E0DD
:1020C0000E940D194CE050E0B8018EEB93E00E94A5
:1020D0006C040115110519F0C8010E949A17CE0170
:1020E00001967C0110E000E0D7014D917D0150E0A8
:1020F00070E060E02AE08EEB93E00E94070C0F5F37
:102100001F4F0031110531F564E373E08EEB93E06E
:102110000E944F0C80EA8B8F85E38C8F62E0C301B5
:102120000E94F609182F811109C060E1CE010196C5
:102130000E94F609182F882309F486CF66E373E01E
:102140008EEB93E00E944F0C812F0E94CB050E94E2
:10215000DC0B7ACF6CE28EEB93E00E940205C4CFD9
:102160001F920F920FB60F9211242F933F938F93CC
:102170009F93AF93BF938091B6039091B703A091C3
:10218000B803B091B9033091B50323E0230F2D3785
:1021900058F50196A11DB11D2093B5038093B60398
:1021A0009093B703A093B803B093B9038091BA0397
:1021B0009091BB03A091BC03B091BD030196A11DFA
:1021C000B11D8093BA039093BB03A093BC03B0935B
:1021D000BD03BF91AF919F918F913F912F910F9030
:1021E0000FBE0F901F90189526E8230F0296A11D91
:1021F000B11DD2CF1F920F920FB60F9211240BB6C2
:102200000F922F933F934F935F936F937F938F938F
:102210009F93AF93BF93EF93FF938091A803909107
:10222000A903A091AA03B091AB03892B8A2B8B2B16
:10223000E1F19091A703E091A503F091A6038081BD
:10224000892780838091A8039091A903A091AA0374
:10225000B091AB03181619061A061B069CF4809160
:10226000A8039091A903A091AA03B091AB03019791
:10227000A109B1098093A8039093A903A093AA038D
:10228000B093AB03FF91EF91BF91AF919F918F916D
:102290007F916F915F914F913F912F910F900BBE66
:1022A0000F900FBE0F901F90189580910002EAE9E1
:1022B000F2E0E4919FEF90930002E230E9F040F405
:1022C000EE2389F0E13091F060E00E94F302DACF72
:1022D000E43049F110F1E530B9F7909173009D7F3A
:1022E00090937300F1CF10926E00EECF90916F003B
:1022F0009D7F90936F00E8CF909170009D7F9093A9
:10230000700091E09093B0009091B100987F94603C
:102310009093B1001092B300D7CF909171009D7F40
:1023200090937100D1CF909172009D7F9093720035
:10233000CBCF1F920F920FB60F9211240BB60F92B4
:102340002F933F934F935F936F937F938F939F93BD
:10235000AF93BF93EF93FF938EEB93E00E94E00463
:10236000FF91EF91BF91AF919F918F917F916F916D
:102370005F914F913F912F910F900BBE0F900FBE29
:102380000F901F9018951F920F920FB60F92112465
:102390000BB60F922F938F939F93EF93FF93E09140
:1023A000CE03F091CF038081E091D403F091D50367
:1023B00082FD1DC090818091D7038F5F8F73209124
:1023C000D803821741F0E091D703F0E0E254FC4FCC
:1023D000958F8093D703FF91EF919F918F912F91CC
:1023E0000F900BBE0F900FBE0F901F90189580811D
:1023F000F2CF1F920F920FB60F9211240F900FBEC3
:102400000F901F901895EEEBF3E01382128288EE86
:1024100093E0A0E0B0E084839583A683B7838BE24A
:1024200092E09183808385EC90E09587848784ECAB
:1024300090E09787868780EC90E0918B808B81EC91
:1024400090E0938B828B82EC90E0958B848B86EC72
:1024500090E0978B868B118E128E138E148EEBE686
:10246000F4E01382128287E492E09183808386E114
:1024700084838FEF858387E186838CE187838DE179
:1024800080878EE181878FE1828713861486158687
:102490001686178681E00E94FB0AEBE5F4E08DE3E7
:1024A00092E09183808385E3868782E08787089521
:1024B000789484B5826084BD84B5816084BD85B51F
:1024C000826085BD85B5816085BD80916E0081602B
:1024D00080936E00109281008091810082608093D1
:1024E00081008091810081608093810080918000D3
:1024F0008160809380008091B10084608093B100FE
:102500008091B00081608093B000809191008260E2
:1025100080939100809191008160809391008091DF
:1025200090008160809390008091A10082608093F0
:10253000A1008091A10081608093A1008091A00002
:1025400081608093A00080912101826080932101AD
:10255000809121018160809321018091200181601F
:102560008093200180917A00846080937A0080912A
:102570007A00826080937A0080917A0081608093F3
:102580007A0080917A00806880937A001092C1006E
:10259000E091CE03F091CF0382E08083E091CA0303
:1025A000F091CB031082E091CC03F091CD038FEC3E
:1025B00080831092D603E091D203F091D30386E09A
:1025C0008083E091D003F091D1038081806180838A
:1025D000E091D003F091D103808188608083E09105
:1025E000D003F091D103808180688083E091D00393
:1025F000F091D10380818F7D8083CFB7F894809153
:10260000AC03811127C0EAEBF3E08491E0E0F4E051
:102610009491E82FF0E0EE0FFF1FE95CFC4FA591CD
:10262000B491EC91E92321F461E085E30E94F30287
:1026300061E085E30E9421038CB580618CBD8CB57F
:1026400080648CBD61E084E30E94210361E083E348
:102650000E9421038091AC038F5F8093AC03CFBFB6
:1026600061E0809169040E94210361E08091690426
:102670000E94F30280916A048F3F09F48CC060E0ED
:102680000E94210380916A040E94CA02892B09F0EA
:1026900082C061E080916A040E94210360E0809121
:1026A0006A040E94F30283E090E00197F1F761E091
:1026B00080916A040E94F30262E370E080E090E09F
:1026C0000E943A0440E064E28BE594E00E944F06E9
:1026D00040E066E28BE594E00E944F0646E268E443
:1026E0008BE594E00E944F0640E864E58BE594E0BA
:1026F0000E944F0649EA66E58BE594E00E944F068A
:1027000043E068E58BE594E00E944F0648EE6AE5F9
:102710008BE594E00E944F0640E46AE28BE594E08A
:102720000E944F064DE362E28BE594E00E944F0663
:1027300068E28BE594E00E943106982F9370933005
:1027400039F0482F436068E28BE594E00E944F0621
:102750006EE68BE594E00E943106C82F82E293E09A
:102760000E944F054C2F50E070E060E020E18EEBBE
:1027700093E00E94070C8FE093E0C03959F110F507
:102780008BEE92E0C23131F187E193E0C83811F16C
:102790008EED92E01FC04FE062E08BE594E00E9476
:1027A0004F06C3E062E370E080E090E00E943A04EC
:1027B00062E08BE594E00E94310684FF83CFC15034
:1027C00089F780CF87E093E0C13921F08FEF92E065
:1027D000C239F1F60E94DC0BC150CE3F20F08BE9EC
:1027E00092E00E94DC0B8EE493E00E94F40B82E006
:1027F0000E94FB0A60E080E00E949C0B68E673E0A8
:102800008BE694E00E944F0C61E080E00E949C0BFC
:1028100069E773E08BE694E00E944F0C68EE73E08A
:1028200080E090E00E943A040E94F30A60E083E0B6
:102830000E94210360E084E00E94210360E085E0C3
:102840000E94210390E080E00E947A0E61E088E01F
:102850000E94210361E08CE00E94210361E08AE094
:102860000E94210361E08BE00E94210369E172E094
:1028700080E00E94B10B61E172E081E00E94B10B47
:1028800069E072E082E00E94B10B61E072E083E0F7
:102890000E94B10B80E4D82EEE24E394F12C8091B9
:1028A0007B00877F80937B00D0927C0080917A00B0
:1028B000806480937A0080917A0086FDFCCF6091DD
:1028C000780070917900072E000C880B990B0E94FC
:1028D00011152AE038E240EA5BE30E94701560932C
:1028E000B1037093B2038093B3039093B403009148
:1028F000AF031091B0030115110509F052C083E038
:102900000E94CA02892BB1F08091AD039091AE0371
:10291000009739F001979093AE038093AD030E9426
:102920007A0E64E670E080E090E00E943A040E9433
:102930008A05B5CF85E00E94CA02892B49F08091B3
:10294000AD039091AE038430910559F30196E3CF26
:1029500084E00E94CA02892B21F3C091AD03D0917B
:10296000AE03C230D10599F054F4C130D105C9F697
:102970000E94770CD093B003C093AF03D2CFC33083
:10298000D10561F0249769F60E94B30F02C00E943E
:10299000E30EF092B003E092AF03C3CF0E94510C5C
:1029A000F8CF0130110509F0BCCFC091AD03D09133
:1029B000AE03C230D10521F1A4F4C130D105C9F074
:1029C00084E00E94CA02892B09F4ABCF8091AD0349
:1029D0009091AE030E947A0E1092B0031092AF0352
:1029E000A0CFC330D10599F0249751F70E94B30FBF
:1029F00009C00E94770CD093B003C093AF03E0CF1F
:102A00000E94E30E1093B0030093AF03D9CF0E944E
:102A1000510CF8CF0E944C1508F481E00895E89419
:102A200009C097FB3EF490958095709561957F4F16
:102A30008F4F9F4F9923A9F0F92F96E9BB279395C4
:102A4000F695879577956795B795F111F8CFFAF4D4
:102A5000BB0F11F460FF1BC06F5F7F4F8F4F9F4F05
:102A600016C0882311F096E911C0772321F09EE863
:102A7000872F762F05C0662371F096E8862F70E0C9
:102A800060E02AF09A95660F771F881FDAF7880FA3
:102A90009695879597F90895990F0008550FAA0BF9
:102AA000E0E8FEEF16161706E807F907C0F0121661
:102AB0001306E407F50798F0621B730B840B950B64
:102AC00039F40A2661F0232B242B252B21F40895B9
:102AD0000A2609F4A140A6958FEF811D811D089556
:102AE0000E9483150C94F4150E94E61538F00E949C
:102AF000ED1520F0952311F00C94DD150C94E315E1
:102B000011240C9428160E94051670F3959FC1F3AA
:102B1000950F50E0551F629FF001729FBB27F00D8B
:102B2000B11D639FAA27F00DB11DAA1F649F6627E0
:102B3000B00DA11D661F829F2227B00DA11D621F2F
:102B4000739FB00DA11D621F839FA00D611D221FE9
:102B5000749F3327A00D611D231F849F600D211DCD
:102B6000822F762F6A2F11249F5750409AF0F1F050
:102B700088234AF0EE0FFF1FBB1F661F771F881FB9
:102B800091505040A9F79E3F510580F00C94DD15FF
:102B90000C9428165F3FE4F3983ED4F3869577951E
:102BA0006795B795F795E7959F5FC1F7FE2B880F5F
:102BB000911D9695879597F9089597F99F6780E8F5
:102BC00070E060E008959FEF80EC089500240A947F
:102BD0001616170618060906089500240A941216F8
:102BE0001306140605060895092E0394000C11F42B
:102BF000882352F0BB0F40F4BF2B11F460FF04C0D8
:102C00006F5F7F4F8F4F9F4F089557FD9058440F30
:102C1000551F59F05F3F71F04795880F97FB991F3B
:102C200061F09F3F79F087950895121613061406F8
:102C3000551FF2CF4695F1DF08C016161706180685
:102C4000991FF1CF86957105610508940895E89460
:102C5000BB2766277727CB0197F908955058BB27E4
:102C6000AA270E9446160C94F4150E94E61538F027
:102C70000E94ED1520F039F49F3F19F426F40C94CE
:102C8000E3150EF4E095E7FB0C94DD15E92F0E94A7
:102C9000051658F3BA17620773078407950720F0E3
:102CA00079F4A6F50C9427160EF4E0950B2EBA2FA6
:102CB000A02D0B01B90190010C01CA01A001112442
:102CC000FF27591B99F0593F50F4503E68F11A16EE
:102CD000F040A22F232F342F4427585FF3CF46957F
:102CE00037952795A795F0405395C9F77EF41F16A1
:102CF000BA0B620B730B840BBAF09150A1F0FF0F6B
:102D0000BB1F661F771F881FC2F70EC0BA0F621F56
:102D1000731F841F48F4879577956795B795F79546
:102D20009E3F08F0B0CF9395880F08F09927EE0FDB
:102D30009795879508950E940D1688F09F5798F0F3
:102D4000B92F9927B751B0F0E1F0660F771F881FB0
:102D5000991F1AF0BA95C9F714C0B13091F00E94CA
:102D60002716B1E008950C942716672F782F88272F
:102D7000B85F39F0B93FCCF3869577956795B395F1
:102D8000D9F73EF490958095709561957F4F8F4F60
:102D90009F4F08950E944C1508F48FEF08950E94EC
:102DA0004C15880B990B0895A1E21A2EAA1BBB1B88
:102DB000FD010DC0AA1FBB1FEE1FFF1FA217B30707
:102DC000E407F50720F0A21BB30BE40BF50B661F1D
:102DD000771F881F991F1A9469F7609570958095E1
:102DE00090959B01AC01BD01CF010895EE0FFF1F2F
:102DF000881F8BBF0790F691E02D19940F931F93B6
:102E0000CF93DF938230910510F482E090E0E0915F
:102E10008504F091860430E020E0B0E0A0E0309737
:102E200099F42115310509F44AC0281B390B2430C7
:102E30003105D8F58A819B816115710589F1FB0106
:102E400093838283FE0111C04081518102811381ED
:102E500048175907E0F04817590799F4109761F09F
:102E600012960C93129713961C933296CF01DF9112
:102E7000CF911F910F9108950093850410938604BC
:102E8000F4CF2115310551F04217530738F0A9014D
:102E9000DB019A01BD01DF01F801C1CFEF01F9CFDC
:102EA0009093860480938504CDCFFE01E20FF31F3B
:102EB000819391932250310939832883D7CF209170
:102EC000830430918404232B41F420912302309118
:102ED00024023093840420938304209121023091B2
:102EE00022022115310541F42DB73EB7409125024C
:102EF00050912602241B350BE0918304F091840449
:102F0000E217F307A0F42E1B3F0B2817390778F0C0
:102F1000AC014E5F5F4F2417350748F04E0F5F1F1F
:102F20005093840440938304819391939FCFF0E066
:102F3000E0E09CCFCF93DF930097E9F0FC0132975C
:102F400013821282A0918504B0918604ED0130E0D5
:102F500020E01097A1F420813181820F931F2091EE
:102F60008304309184042817390709F061C0F09375
:102F70008404E0938304DF91CF910895EA01CE1792
:102F8000DF07E8F54A815B819E0141155105B1F7E4
:102F9000E901FB83EA8349915991C40FD51FEC17CE
:102FA000FD0761F4808191810296840F951FE901EC
:102FB00099838883828193819B838A83F0E0E0E018
:102FC00012968D919C9113970097B9F52D913C9194
:102FD0001197CD010296820F931F209183043091A7
:102FE00084042817390739F6309751F51092860472
:102FF00010928504B0938404A0938304BCCFD38340
:10300000C28340815181840F951FC817D90761F48D
:103010004E5F5F4F88819981480F591F51834083CC
:103020008A819B81938382832115310509F0B0CF7A
:10303000F0938604E09385049ECFFD01DC01C0CFB0
:1030400013821282D7CF4F925F926F927F928F92AC
:103050009F92AF92BF92CF92DF92EF92FF920F9327
:103060001F93CF93DF938C01009799F4CB01DF91ED
:10307000CF911F910F91FF90EF90DF90CF90BF9075
:10308000AF909F908F907F906F905F904F900C9437
:10309000FE16FC01E60FF71F9C0122503109E217D2
:1030A000F30708F4AEC0D901CD91DC911197C61792
:1030B000D70720F1C530D10578F0CE0104978617E7
:1030C000970750F0C61BD70B2297C193D1936D93EE
:1030D0007C93CF010E949A17C801DF91CF911F9175
:1030E0000F91FF90EF90DF90CF90BF90AF909F90A7
:1030F0008F907F906F905F904F9008955B01AC1A16
:10310000BD0A4C018C0E9D1EA0918504B0918604D1
:10311000512C412CF12CE12C109731F58091830436
:10312000909184048815990509F05CC046165706ED
:1031300008F058C08091210290912202009741F43A
:103140008DB79EB74091250250912602841B950BA6
:10315000E817F90708F055C0F0938404E09383045E
:10316000F90171836083B8CF8D919C91119712966C
:103170006C90129713967C901397A815B90559F582
:103180006C0142E0C40ED11CCA14DB0420F1AC0176
:103190004A195B09DA011296159780F062827382F0
:1031A00051834083D9016D937C93E114F10471F054
:1031B000D7011396FC93EE9312978ECF22968C0F25
:1031C0009D1FF90191838083F301EFCFF093860473
:1031D000E093850481CF4816590608F42C017D013F
:1031E000D3019ACFCB010E94FE167C01009749F0D3
:1031F000AE01B8010E940419C8010E949A17870104
:103200006BCF10E000E068CFFB01DC0102C0019051
:103210000D9241505040D8F70895FB01DC01019018
:103220000D920020E1F70895F894FFCFFF00000A07
:10323000150A040000041F0A041F04101F0E080EC4
:10324000041F040A04001D0505000F090F00008774
:103250000480000000000002056C0499046A05CA9D
:1032600004A804BC04000000006B080308BB0500B0
:10327000000000AB0B6C04F309F2090D0A004D616C
:1032800064652062792000676D61696C3A626575DA
:103290006574763132330055494420ECB69CEBA07E
:1032A000A5203A200053454C4345542041204D4F22
:1032B0004445003C312F343E00524553554C54494F
:1032C0004E47204D4F4445003C322F343E0044458C
:1032D000425547494E47204D4F4445003C332F341B
:1032E0003E00494E464F003C342F343E0057726931
:1032F00074696E67004C43443A00566F6C743A0030
:103300006E616E00696E66006F76660056006F6BC8
:10331000006E2F610041ED82A420EC9DB8ECA69DCB
:1033200020EC8B9CEC9E912E2E2E005043445F414E
:10333000757468656E746963617465282920EC8B07
:10334000A4ED8CA83A2000EAB8B0EBA19DECA491C2
:103350002E2E006275666665725B5D203D207B00E7
:103360007D004D49464152455F5772697465282971
:1033700020EC8BA4ED8CA8203A0072666964206969
:103380006E6974616C697A6520636F6D70656C65D8
:1033900074652E006162636465666768697A6B6C48
:1033A0006E6D6F700021402324255E313233343539
:0633B00036373839300009
:020000040003F7
:10E000000D9489F10D94B2F10D94B2F10D94B2F129
:10E010000D94B2F10D94B2F10D94B2F10D94B2F1F0
:10E020000D94B2F10D94B2F10D94B2F10D94B2F1E0
:10E030000D94B2F10D94B2F10D94B2F10D94B2F1D0
:10E040000D94B2F10D94B2F10D94B2F10D94B2F1C0
:10E050000D94B2F10D94B2F10D94B2F10D94B2F1B0
:10E060000D94B2F10D94B2F10D94B2F10D94B2F1A0
:10E070000D94B2F10D94B2F10D94B2F10D94B2F190
:10E080000D94B2F10D94B2F10D94B2F10D94B2F180
:10E090000D94B2F10D94B2F10D94B2F10D94B2F170
:10E0A0000D94B2F10D94B2F10D94B2F10D94B2F160
:10E0B0000D94B2F10D94B2F10D94B2F10D94B2F150
:10E0C0000D94B2F10D94B2F10D94B2F10D94B2F140
:10E0D0000D94B2F10D94B2F10D94B2F10D94B2F130
:10E0E0000D94B2F141546D656761323536300041AF
:10E0F000726475696E6F206578706C6F72657220DE
:10E1000073746B3530305632206279204D4C530099
:10E11000426F6F746C6F616465723E004875683F52
:10E1200000436F6D70696C6564206F6E203D200048
:10E130004350552054797065202020203D20005FF9
:10E140005F4156525F415243485F5F3D2000415658
:10E1500052204C696243205665723D20004743437C
:10E160002056657273696F6E203D20004350552024
:10E1700049442020202020203D20004C6F7720663D
:10E18000757365202020203D20004869676820665F
:10E190007573652020203D200045787420667573D6
:10E1A00065202020203D20004C6F636B2066757336
:10E1B000652020203D20004D617220203720323024
:10E1C000313300312E362E3800342E332E350056A2
:10E1D00023202020414444522020206F7020636F70
:10E1E00064652020202020696E73747275637469E1
:10E1F0006F6E2061646472202020496E74657272B3
:10E20000757074006E6F20766563746F7200726A49
:10E210006D702020006A6D70200057686174207056
:10E220006F72743A00506F7274206E6F7420737541
:10E2300070706F72746564004D7573742062652030
:10E2400061206C6574746572002000577269747483
:10E25000696E672045450052656164696E672045B7
:10E26000450045452065727220636E743D00504F35
:10E27000525400303D5A65726F2061646472003FF1
:10E280003D43505520737461747300403D454550C3
:10E29000524F4D207465737400423D426C696E6B41
:10E2A000204C454400453D44756D70204545505215
:10E2B0004F4D00463D44756D7020464C415348001B
:10E2C000483D48656C70004C3D4C69737420492F83
:10E2D0004F20506F72747300513D51756974005234
:10E2E0003D44756D702052414D00563D73686F7707
:10E2F00020696E7465727275707420566563746FF0
:10E30000727300593D506F727420626C696E6B00BD
:10E310002A0011241FBECFEFD1E2DEBFCDBF01E046
:10E320000CBF12E0A0E0B2E0EEE1FDEF03E00BBFB6
:10E3300002C007900D92A030B107D9F712E0A0E01B
:10E34000B2E001C01D92AE30B107E1F70F9460F367
:10E350000D948DFE01E20EBF0FEF0DBF11241FBE05
:10E360000D9460F30D9400F020E030E040ED57E0B4
:10E3700005C0FA013197F1F72F5F3F4F2817390792
:10E38000C0F308959C01260F311DC901A0E0B0E043
:10E390002F5F3F4FABBFFC018791882361F08093D3
:10E3A000C6008091C00086FFFCCF8091C0008064D1
:10E3B0008093C000EACF08958DE08093C6008091DD
:10E3C000C00086FFFCCF8091C00080648093C000B5
:10E3D0008AE08093C6008091C00086FFFCCF8091C8
:10E3E000C00080648093C00008950F94C2F10F9420
:10E3F000DCF10895FC019081992359F09093C600B7
:10E400008091C00086FFFCCF8091C0008064809323
:10E41000C0003196992379F70895282F982F929567
:10E420009F70892F805D8A3308F0895F8093C600D2
:10E430008091C00086FFFCCF8091C00080648093F3
:10E44000C000822F8F70982F905D9A3308F0995FEB
:10E450009093C6008091C00086FFFCCF8091C000E1
:10E4600080648093C00008959C01FB01853691056E
:10E470001CF46330710594F0C90164E670E00F94F8
:10E480002EFE605D7F4F6093C6008091C00086FFC6
:10E49000FCCF8091C00080648093C0002B30310598
:10E4A00014F43297B4F0C90164E670E00F942EFEC4
:10E4B0006AE070E00F942EFE605D7F4F6093C600AF
:10E4C0008091C00086FFFCCF8091C0008064809363
:10E4D000C000C9016AE070E00F942EFEC0968093E0
:10E4E000C6008091C00086FFFCCF8091C000806490
:10E4F0008093C00008951F93182F8EE692EE60E07F
:10E500000F94C2F11093C6008091C00086FFFCCF2B
:10E510008091C00080648093C0000F94DCF11F9153
:10E5200008952F923F924F925F926F927F928F92B7
:10E530009F92AF92BF92CF92DF92EF92FF920F9392
:10E540001F93DF93CF93CDB7DEB762970FB6F894E2
:10E55000DEBF0FBECDBF382E622ECA01DB015C01CB
:10E560006D01772420E2222E2E010894411C511CBB
:10E570008BC081E0A81680E0B80681E0C80680E084
:10E58000D80628F0C601AA27BB270F940DF2BB2797
:10E59000AD2D9C2D8B2D0F940DF28A2D0F940DF225
:10E5A0002092C6008091C00086FFFCCF8091C00001
:10E5B00080648093C0009DE29093C6008091C0006B
:10E5C00086FFFCCF8091C00080648093C0002092C1
:10E5D000C6008091C00086FFFCCF8091C00080649F
:10E5E0008093C00019828601750188249924A1E0D6
:10E5F0003A1651F03A1620F0B2E03B1661F409C029
:10E600000BBFF701779007C0C7010F9477FE782EF4
:10E6100002C0F7017080872D0F940DF22092C60082
:10E620008091C00086FFFCCF8091C0008064809301
:10E63000C000872D8052F401EF70F0708F3520F408
:10E64000E40DF51D708204C0E40DF51D8EE280839B
:10E650000894E11CF11C011D111D0894811C911CE2
:10E6600090E18916910409F0C2CF80E190E0A0E02A
:10E67000B0E0A80EB91ECA1EDB1E198AC2010F9493
:10E68000FAF10F94DCF16A94662009F072CF629679
:10E690000FB6F894DEBF0FBECDBFCF91DF911F91B3
:10E6A0000F91FF90EF90DF90CF90BF90AF909F9031
:10E6B0008F907F906F905F904F903F902F90089534
:10E6C0002F923F924F925F926F927F928F929F9282
:10E6D000AF92BF92CF92DF92EF92FF920F931F9370
:10E6E000DF93CF93CDB7DEB7CD53D1400FB6F894BB
:10E6F000DEBF0FBECDBF01E20EBF0FEF0DBF94B75F
:10E70000F894A89514BE80916000886180936000A1
:10E7100010926000789493FF05C0E0910002F091A0
:10E7200001021995279A2F9A8091C00082608093E8
:10E73000C00080E18093C40088E18093C1000000A4
:10E74000EE24FF24870144E0A42EB12CCC24DD2448
:10E7500024C0C5010197F1F70894E11CF11C011DCB
:10E76000111D21E2E2162EE4F20620E0020720E06D
:10E77000120718F031E0C32ED12CC801B70127ECE5
:10E780003BE140E050E00F9441FE611571058105C9
:10E79000910519F485B1805885B98091C00087FD35
:10E7A00003C0C114D104A9F2A6014F5F5F4FC25E3E
:10E7B000DE4F59834883CE51D140C25EDE4F8881FF
:10E7C0009981CE51D140019711F00D9410FEC05D9A
:10E7D000DE4F19821882C053D14060E0C15DDE4F28
:10E7E0001882CF52D14088249924C35DDE4F19820C
:10E7F0001882CD52D140C05EDE4F188219821A8233
:10E800001B82C052D140CE5CDE4F188219821A8220
:10E810001B82C253D140EE24FF2487010BBFF701B6
:10E8200007911691C45CDE4F19830883CC53D14005
:10E830000D940BFEC25EDE4F28813981CE51D1404E
:10E840002130310509F52091C600C25EDE4F1982E4
:10E850001882CE51D14022C02F5F3F4F4F4F5F4FA4
:10E86000213082E138078AE7480780E0580780F0C6
:10E87000C45CDE4FE881F981CC53D140EF5FFF4F9C
:10E8800019F0EE27FF27099420E030E040E050E047
:10E890008091C00087FFE0CF2091C600C35DDE4FAE
:10E8A00048815981CD52D1404F5F5F4FC35DDE4FEC
:10E8B00059834883CD52D140213209F063C64A3092
:10E8C000510508F05FC60894811C911C53E0851621
:10E8D000910409F059C600E010E018C081E280936D
:10E8E000C6008091C00086FFFCCF8091C00080648C
:10E8F0008093C0002F5F3F4F2931310579F70F9486
:10E90000DCF10F5F1F4F0530110519F020E030E0FA
:10E91000E5CF10920A0210920B0210920C02109294
:10E920000D02109206021092070210920802109235
:10E930000902109202021092030210920402109235
:10E9400005028FEE90EE60E00F94F5F180E191EE1C
:10E9500060E00F94C2F18091C00087FFFCCF9091DE
:10E96000C600903608F09F759032B8F09093C600BC
:10E970008091C00086FFFCCF8091C00080648093AE
:10E98000C000A0E2A093C6008091C00086FFFCCF2B
:10E990008091C00080648093C000983409F4D7C18E
:10E9A0009934B8F4923409F459C1933458F490333B
:10E9B00019F1903308F4E3C59F33A1F1903409F0C5
:10E9C000DEC5BDC0953409F470C1963409F0D7C5D1
:10E9D00098C1923509F42BC2933538F49C3409F46C
:10E9E000F5C1913509F0CBC518C2963509F445C279
:10E9F000993509F0C4C567C483E792EE62E00F94CD
:10EA0000F5F110920602109207021092080210927D
:10EA1000090210920A0210920B0210920C0210923C
:10EA20000D0213C18FE792EE62E00F94F5F18FEEC5
:10EA300090EE60E00F94F5F181E291EE60E00F94CA
:10EA4000C2F187EB91EE60E00F94F5F180E391EE77
:10EA500060E00F94C2F184EE90EE60E00F94F5F167
:10EA60008FE391EE60E00F94C2F186E090E061E008
:10EA700070E00F9434F20F94DCF18DE591EE60E0DC
:10EA80000F94C2F189EC91EE60E00F94F5F18EE401
:10EA900091EE60E00F94C2F183EC91EE60E00F9490
:10EAA000F5F18CE691EE60E00F94C2F18EE10F94E7
:10EAB0000DF288E90F940DF281E00F940DF20F949E
:10EAC000DCF18BE791EE60E00F94C2F119E0E0E039
:10EAD000F0E010935700E4918E2F0F940DF20F94F5
:10EAE000DCF18AE891EE60E00F94C2F1E3E0F0E03F
:10EAF00010935700E4918E2F0F940DF20F94DCF1D8
:10EB000089E991EE60E00F94C2F1E2E0F0E0109349
:10EB10005700E4918E2F0F940DF20F94DCF188EAE8
:10EB200091EE60E00F94C2F1E1E0F0E01093570045
:10EB30001491812F0F940DF20F94DCF107CF8BE825
:10EB400092EE62E00F94F5F18BE492EE60E00F94A8
:10EB5000F5F10F94DCF100E010E019C0C8016F2D51
:10EB60000F947FFEFF2031F489E492EE60E00F9471
:10EB7000C2F10BC0F092C6008091C00086FFFCCFAE
:10EB80008091C00080648093C0000F5F1F4FC80158
:10EB900081519F41A0E0B0E0ABBFFC01F790BAE229
:10EBA000FB1621F0E2E000301E07C1F60F94DCF105
:10EBB0000F94DCF187E592EE60E00F94F5F10F948D
:10EBC000DCF1CC24DD2400E010E01EC0C8010F946D
:10EBD00077FEF82E882331F489E492EE60E00F94FA
:10EBE000C2F10BC08093C6008091C00086FFFCCFAD
:10EBF0008091C00080648093C000FE1419F00894D6
:10EC0000C11CD11C0F5F1F4FC80181519F41A0E063
:10EC1000B0E0ABBFFC01E790FAE2EF1621F022E092
:10EC20000030120799F60F94DCF10F94DCF182E6C4
:10EC300092EE60E00F94C2F1C60161E070E00F94C3
:10EC400034F20F94DCF10F94DCF110920202109276
:10EC50000302109204021092050278CE89E992EE26
:10EC600062E00F94F5F1279A2F9A16C02F9880E052
:10EC700090E0E0EDF7E03197F1F7019684369105E9
:10EC8000C1F72F9A80E090E0E0EDF7E03197F1F7DF
:10EC9000019684369105C1F78091C00087FFE6CFC9
:10ECA0008091C00087FFFCCF64C485EA92EE62E0E9
:10ECB0000F94F5F140910202509103026091040219
:10ECC0007091050281E020E10F9491F2809102029F
:10ECD00090910302A0910402B091050280509F4FD1
:10ECE000AF4FBF4F8093020290930302A0930402A0
:10ECF000B093050280509041A040B04008F426CE69
:10ED0000A4CF83EB92EE62E00F94F5F140910602FE
:10ED100050910702609108027091090280E020E1A1
:10ED20000F9491F28091060290910702A09108023F
:10ED3000B091090280509F4FAF4FBF4F80930602A2
:10ED400090930702A0930802B0930902FFCD80ECD4
:10ED500092EE62E00F94F5F183E792EE60E00F949B
:10ED6000F5F18FE792EE60E00F94F5F18BE892EE0B
:10ED700060E00F94F5F189E992EE60E00F94F5F10F
:10ED800085EA92EE60E00F94F5F183EB92EE60E09D
:10ED90000F94F5F180EC92EE60E00F94F5F187ECC2
:10EDA00092EE60E00F94F5F188ED92EE60E00F9442
:10EDB000F5F18FED92EE60E00F94F5F18AEE92EEB0
:10EDC00060E00F94F5F183E093EEBDCD87EC92EE19
:10EDD00062E00F94F5F181E40F947BF282E40F94EA
:10EDE0007BF283E40F947BF284E40F947BF285E45E
:10EDF0000F947BF286E40F947BF287E40F947BF20E
:10EE000088E40F947BF28AE40F947BF28BE40F94F6
:10EE10007BF28CE40F947BF299CD88ED92EE62E068
:10EE20000F94F5F1772473948824992409C48FED05
:10EE300092EE62E00F94F5F140910A0250910B02BC
:10EE400060910C0270910D0282E020E10F9491F22A
:10EE500080910A0290910B02A0910C02B0910D02D8
:10EE600080509F4FAF4FBF4F80930A0290930B0289
:10EE7000A0930C02B0930D0269CD8AEE92EE62E08F
:10EE80000F94F5F184EE90EE60E00F94F5F18FECC5
:10EE900091EE60E00F94F5F1662477244301CC5D98
:10EEA000DE4F19821882C452D140D401C301B695F5
:10EEB000A79597958795CA5DDE4F88839983AA8326
:10EEC000BB83C652D140CC5DDE4FA881B981C4520C
:10EED000D1401196CC5DDE4FB983A883C452D14096
:10EEE000CD0162E070E00F9434F2B0E2B093C6005E
:10EEF0008091C00086FFFCCF8091C0008064809329
:10EF0000C000EDE2E093C6008091C00086FFFCCF18
:10EF10008091C00080648093C000F0E2F093C6004E
:10EF20008091C00086FFFCCF8091C00080648093F8
:10EF3000C000CA5DDE4FE880F9800A811B81C6529D
:10EF4000D140BB27A12F902F8F2D0F940DF2CA5DBA
:10EF5000DE4F8881C652D1400F940DF2B0E2FB2EF5
:10EF6000F092C6008091C00086FFFCCF8091C00067
:10EF700080648093C0000DE30093C6008091C000C0
:10EF800086FFFCCF8091C00080648093C00010E2B7
:10EF90001093C6008091C00086FFFCCF8091C00016
:10EFA00080648093C0008BBEF3012791C65DDE4F65
:10EFB0002883CA52D140A22EBB24CC24DD2408943D
:10EFC000611C711C811C911C8BBEF3018791282E42
:10EFD0003324442455240894611C711C811C911C09
:10EFE0008BBEF3013791C55DDE4F3883CB52D140E4
:10EFF0000894611C711C811C911C8BBEF30147910C
:10F00000C45DDE4F4883CC52D140ADEFEA2EAFEF66
:10F01000FA2EAFEF0A2FAFEF1A2F6E0C7F1C801E57
:10F02000911E142D032DF22CEE24EA0CFB1C0C1D5A
:10F030001D1D0F940DF220E22093C6008091C000A8
:10F0400086FFFCCF8091C00080648093C000C65DC5
:10F05000DE4F8881CA52D1400F940DF230E23093D6
:10F06000C6008091C00086FFFCCF8091C000806404
:10F070008093C000C45DDE4F8881CC52D1400F9494
:10F080000DF240E24093C6008091C00086FFFCCFA5
:10F090008091C00080648093C000C55DDE4F888190
:10F0A000CB52D1400F940DF250E25093C6008091A4
:10F0B000C00086FFFCCF8091C00080648093C000B8
:10F0C0008FEFE8168FEFF80680E0080780E018075A
:10F0D00031F484E092EE60E00F94C2F1DFC0D80119
:10F0E000C7018070907CA070B0708050904CA040A0
:10F0F000B040D1F52FEF3FE340E050E0E222F322B1
:10F1000004231523CA5DDE4FA880B980CA80DB8046
:10F11000C652D140AE0CBF1CC01ED11EAA0CBB1CD7
:10F12000CC1CDD1C8EE092EE60E00F94C2F1BB2798
:10F13000A12F902F8F2D0F940DF28E2D0F940DF285
:10F1400030E23093C6008091C00086FFFCCF8091F2
:10F15000C00080648093C0004EE34093C60080915D
:10F16000C00086FFFCCF87C08EE09EEFA0E0B0E03D
:10F17000E822F9220A231B239CE0E91694E9F90608
:10F1800090E0090790E0190709F088C0C45DDE4FE0
:10F19000A881CC52D140EA2EFF2400E010E0102FCD
:10F1A0000F2DFE2CEE24C55DDE4FB881CB52D14031
:10F1B000EB0EF11C011D111DD601C501817090706F
:10F1C000A070B070DC0199278827E80EF91E0A1F8D
:10F1D0001B1F20EF30E040E050E0A222B322C42207
:10F1E000D52241E1AA0CBB1CCC1CDD1C4A95D1F7F1
:10F1F000EA0CFB1C0C1D1D1D81E090E0A0E0B0E0BE
:10F20000282239224A225B2235E1220C331C441C7D
:10F21000551C3A95D1F7E20CF31C041D151D57013E
:10F220006801AA0CBB1CCC1CDD1C85E192EE60E0E1
:10F230000F94C2F1C801AA27BB270F940DF2BB2778
:10F24000A12F902F8F2D0F940DF28E2D0F940DF274
:10F2500090E29093C6008091C00086FFFCCF809121
:10F26000C00080648093C000AEE3A093C60080918C
:10F27000C00086FFFCCF8091C00080648093C000F6
:10F28000C601AA27BB270F940DF2BB27AD2D9C2DDD
:10F290008B2D0F940DF28A2D0F940DF20F94DCF14B
:10F2A000CC5DDE4FE881F981C452D140F99709F471
:10F2B0004DCBF4E0EF2EF12C012D112D6E0C7F1CA7
:10F2C000801E911EF2CD83E093EE62E00F94F5F183
:10F2D0008AE192EE60E00F94C2F18091C00087FF56
:10F2E000FCCF1091C6001F751093C6008091C0001E
:10F2F00086FFFCCF8091C00080648093C0000F9493
:10F30000DCF1812F81548A3108F036C1163409F4BA
:10F3100095C0173490F4133409F44EC0143430F40B
:10F320001134F1F0123409F01DC130C0143409F465
:10F3300059C0153409F016C16BC01A3409F4C4C0A1
:10F340001B3438F4173409F48FC0183409F00AC19B
:10F35000A1C01B3409F4D2C01C3409F003C1E8C0B9
:10F360008FEF81B90DC082B1809582B980E090E0C5
:10F37000E0EDF7E03197F1F70196883C9105C1F790
:10F380008091C00087FFEFCF12B8EFC08FEF84B934
:10F390000DC085B1809585B980E090E0E0EDF7E0A3
:10F3A0003197F1F70196883C9105C1F78091C00033
:10F3B00087FFEFCF15B8D9C08FEF87B90DC088B1DF
:10F3C000809588B980E090E0E0EDF7E03197F1F7C3
:10F3D0000196883C9105C1F78091C00087FFEFCF6F
:10F3E00018B8C3C08FEF8AB90DC08BB180958BB9A7
:10F3F00080E090E0E0EDF7E03197F1F70196883C8E
:10F400009105C1F78091C00087FFEFCF1BB8ADC059
:10F410008FEF8DB90DC08EB180958EB980E090E0F0
:10F42000E0EDF7E03197F1F70196883C9105C1F7DF
:10F430008091C00087FFEFCF1EB897C08FEF80BBD1
:10F440000DC081B3809581BB80E090E0E0EDF7E0F6
:10F450003197F1F70196883C9105C1F78091C00082
:10F4600087FFEFCF11BA81C08FEF83BB0DC084B38C
:10F47000809584BB80E090E0E0EDF7E03197F1F714
:10F480000196883C9105C1F78091C00087FFEFCFBE
:10F4900014BA6BC08FEF809301010FC080910201FD
:10F4A00080958093020180E090E0E0EDF7E03197F5
:10F4B000F1F70196883C9105C1F78091C00087FF64
:10F4C000EDCF1092020151C08FEF809304010FC065
:10F4D0008091050180958093050180E090E0E0ED4A
:10F4E000F7E03197F1F70196883C9105C1F78091DB
:10F4F000C00087FFEDCF1092050137C08FEF8093DA
:10F5000007010FC08091080180958093080180E079
:10F5100090E0E0EDF7E03197F1F70196883C910536
:10F52000C1F78091C00087FFEDCF109208011DC088
:10F530008FEF80930A010FC080910B01809580931B
:10F540000B0180E090E0E0EDF7E03197F1F70196F4
:10F55000883C9105C1F78091C00087FFEDCF1092E4
:10F560000B0103C085E292EEEEC98091C00087FFD7
:10F57000FCCF8091C600EAC988E392EEE4C98CE131
:10F5800091EEE1C988249924933011F1943028F444
:10F59000913089F09230B8F408C0953061F195301F
:10F5A000F0F0963009F048C043C02B3109F042C951
:10F5B00091E06BE13FC96227C15DDE4F2883CF52E6
:10F5C000D14092E037C9B22FA0E0622793E032C960
:10F5D000822F90E0A82BB92B622794E02BC92E3004
:10F5E00009F039C3622795E0C05DDE4F19821882A9
:10F5F000C053D1401FC9E1E0F0E0EC0FFD1FC05D3A
:10F60000DE4F08811981C053D140E00FF11F2083E4
:10F610000F5F1F4FC05DDE4F19830883C053D14079
:10F6200062270A171B0709F005C9D80196E002C92D
:10F63000261709F010C303C0973009F0FBC87724E0
:10F640009981933109F412C19431C8F4963009F4C8
:10F65000D8C0973050F4923009F406C1933009F4C1
:10F660006DC0913009F059C253C0913109F477C08F
:10F67000923108F0BBC0903109F04FC2F5C098310B
:10F6800009F487C0993150F4953109F4EFC09531F0
:10F6900008F4C6C1963109F040C2C2C19A3109F4DA
:10F6A0006CC09A3108F491C09B3109F45BC09D3164
:10F6B00009F033C29D81903359F48F81882311F46E
:10F6C0009EE11CC0813011F091E018C098E916C08D
:10F6D000892F807591F0903539F4E0E0F0E089E011
:10F6E0008093570094910AC0983539F4E3E0F0E034
:10F6F00089E080935700949101C090E01A821B82A8
:10F700008D818C831D829E831F8227E030E009C299
:10F710001A8288E08B8381E48C8386E58D8382E581
:10F720008E8389E48F8383E5888780E589878FE5E9
:10F730008A8782E38B872BE030E0F3C18A818139AD
:10F7400041F0823941F0803911F48FE005C080E04A
:10F7500003C082E001C08AE01A828B8344C0772410
:10F76000739482C08D81882311F48EE12CC0813086
:10F7700011F081E028C088E926C01A82E1E0F0E0BB
:10F7800089E08093570084918B831C8224E030E0D1
:10F79000C8C18B81803589F48C81883039F4E2E0EE
:10F7A000F0E089E08093570084910DC0E0E0F0E044
:10F7B00089E080935700849106C0E3E0F0E089E09F
:10F7C0008093570084911A82DFCF8D81836C99E0FA
:10F7D000E1E0F0E0082E90935700E89507B600FCB2
:10F7E000FDCF1A821B8223E030E09BC180EC8A832C
:10F7F000CE5CDE4F188219821A821B82C253D1401E
:10F800008EC18A8190E0A0E0B0E0582F44273327D2
:10F8100022278B8190E0A0E0B0E0DC0199278827C7
:10F82000282B392B4A2B5B2B8D8190E0A0E0B0E098
:10F83000282B392B4A2B5B2B8C8190E0A0E0B0E089
:10F84000BA2FA92F982F8827282B392B4A2B5B2BCF
:10F85000220F331F441F551FC05EDE4F288339839C
:10F860004A835B83C052D1401A8259C13A81C95C34
:10F87000DE4F3883C753D140CA5CDE4F1882C6536F
:10F88000D1408B81C82EDD24CA5CDE4F488159816E
:10F89000C653D140C42AD52A933109F082C0CE5C28
:10F8A000DE4F88819981AA81BB81C253D1408050AB
:10F8B000904CA340B04030F583E0CE5CDE4FE88052
:10F8C000F9800A811B81C253D140F70100935B008C
:10F8D00080935700E89507B600FCFDCFCE5CDE4F65
:10F8E000088119812A813B81C253D14000501F4FAA
:10F8F0002F4F3F4FCE5CDE4F088319832A833B8313
:10F90000C253D140C05EDE4F488159816A817B81FC
:10F91000C052D140DE011B9631E08C9111962C91A2
:10F9200011971296C75CDE4F2883C953D140C85C3B
:10F93000DE4F1882C853D14090E0C85CDE4FE881AA
:10F94000F981C853D1408E2B9F2B0C01FA01609393
:10F950005B0030935700E89511244E5F5F4F6F4F67
:10F960007F4F0EEFE02E0FEFF02ECE0CDF1CC114F8
:10F97000D10499F685E0C05EDE4F088119812A81A5
:10F980003B81C052D140F80120935B008093570027
:10F99000E89507B600FCFDCF81E180935700E8951C
:10F9A00035C0C05EDE4F88819981AA81BB81C0527B
:10F9B000D140B695A795979587957C018601ABE0D8
:10F9C000AA2EB12CAC0EBD1E0BC0D5016D915D01F0
:10F9D000C7010F947FFE0894E11CF11C01501040F8
:10F9E0000115110591F7A60160E070E0440F551F65
:10F9F000661F771FC05EDE4FE880F9800A811B8199
:10FA0000C052D1404E0D5F1D601F711F1A82C05E33
:10FA1000DE4F488359836A837B83C052D1407FC0C5
:10FA2000FA80C55CDE4FF882CB53D140C65CDE4F16
:10FA30001882CA53D1408B81C82EDD24C65CDE4FAC
:10FA400008811981CA53D140C02AD12A1A828981DA
:10FA5000BE016D5F7F4F843121F59601C05EDE4FA0
:10FA6000E880F9800A811B81C052D1400BBFF701A9
:10FA700087919691DB018C9311969C936E5F7F4FDB
:10FA8000D801C7010296A11DB11DC05EDE4F88835B
:10FA90009983AA83BB83C052D14022503040F1F6F3
:10FAA00036C0C05EDE4F288139814A815B81C052F9
:10FAB000D1400894C108D108760100E010E0089414
:10FAC000C11CD11C0894E11CF11C011D111DE20E8A
:10FAD000F31E041F151F21BDBB27A52F942F832FB5
:10FAE00082BD2F5F3F4F4F4F5F4FF89A80B5DB01CC
:10FAF0008D93BD012E153F054007510761F7C05E8C
:10FB0000DE4F288339834A835B83C052D1409601FC
:10FB10002D5F3F4FFB01108204C080EC8A8322E0FE
:10FB200030E08BE18093C6008091C00086FFFCCF5F
:10FB30008091C00080648093C000C15DDE4FF88179
:10FB4000CF52D140F093C6008091C00086FFFCCF19
:10FB50008091C00080648093C000432F3093C60022
:10FB60008091C00086FFFCCF8091C00080648093AC
:10FB7000C000922F2093C6008091C00086FFFCCF6A
:10FB80008091C00080648093C0008EE08093C600A6
:10FB90008091C00086FFFCCF8091C000806480937C
:10FBA000C00065E1C15DDE4FE880CF52D1406E25D7
:10FBB00069276427FE01319610C090819093C6009A
:10FBC0008091C00086FFFCCF31968091C000806498
:10FBD0008093C0006927215030402115310569F715
:10FBE0006093C6008091C00086FFFCCF8091C0006A
:10FBF00080648093C00085B1805885B9772081F4F6
:10FC0000C15DDE4F0881CF52D1400F5FC15DDE4F35
:10FC10000883CF52D14090E0A0E0B0E00D941AF4F8
:10FC200027982F9880E090E020ED37E0F901319798
:10FC3000F1F7019684369105C9F700008091C00064
:10FC40008D7F8093C00081E180935700E895EE2777
:10FC5000FF270994FFCF90E00D941AF497FB092E2B
:10FC600007260AD077FD04D02ED006D000201AF443
:10FC7000709561957F4F0895F6F7909581959F4F08
:10FC80000895A1E21A2EAA1BBB1BFD010DC0AA1FDD
:10FC9000BB1FEE1FFF1FA217B307E407F50720F0F5
:10FCA000A21BB30BE40BF50B661F771F881F991F70
:10FCB0001A9469F760957095809590959B01AC01B9
:10FCC000BD01CF010895AA1BBB1B51E107C0AA1FAC
:10FCD000BB1FA617B70710F0A61BB70B881F991FED
:10FCE0005A95A9F780959095BC01CD010895F99991
:10FCF000FECF92BD81BDF89A992780B50895262F31
:10FD0000F999FECF1FBA92BD81BD20BD0FB6F89400
:0EFD1000FA9AF99A0FBE01960895F894FFCF63
:00000001FF
